:103800000C94571C0C94741C0C94991D0C94741CEF
:103810000C94741C0C94741C0C94741C0C94741CE8
:103820000C94741C0C94741C0C94741C0C94741CD8
:103830000C94741C0C94741C0C94741C0C94741CC8
:103840000C94741C0C94741C0C94741C0C94741CB8
:103850000C94741C09021200010100802809040064
:1038600000000000000012011001FF000008C01657
:10387000DC05000101020001160341005600520060
:1038800055005300420042006F006F0074001C039B
:103890007700770077002E006600690073006300F0
:1038A00068006C002E006400650004030904112404
:1038B0001FBECFE5D4E0DEBFCDBF10E0A0E6B0E094
:1038C000E8ECFEE302C005900D92A236B107D9F7ED
:1038D00010E0A2E6B0E001C01D92AC39B107E1F7FB
:1038E0000E94411F0C94621F0C94001CCF93DF9325
:1038F00060918200635067FDA4C080917F00CCE09E
:10390000D0E0C81BD109CA57DF4F80917E008D32AD
:1039100009F085C0683009F092C083EC8093720092
:103920008AE580936100109262008881807621F0A0
:10393000CE010E94BA1E60C08A8110927B009981DC
:10394000911106C010927C002BE730E082E050C05D
:10395000953019F4809383003DC09630A9F59B8182
:10396000913019F486E698E304C0923041F484E57E
:1039700098E3909381008093800082E121C093308E
:10398000F1F4811108C08AEA98E390938100809352
:10399000800084E015C0813041F48EE898E3909374
:1039A0008100809380008CE10BC0823041F488E775
:1039B00098E3909381008093800086E101C080E0CD
:1039C00090E49093620018C0983079F0993031F407
:1039D000809385002BE730E080E00AC081E09A30D8
:1039E00009F080E02BE730E003C025E830E081E01B
:1039F00030938100209380008F3F39F4988197FDA8
:103A00008E8190E89093620007C09F81911104C05D
:103A10009E81981708F4892F8093600010C08091D0
:103A2000620087FF0CC0CE010E94F71E8F3F21F479
:103A30008EE18093610003C08111109260001092AA
:103A400082008091610084FF47C0809160008F3FB9
:103A500009F442C0C82F893008F0C8E08C1B80935D
:103A600060008091720098E8892780937200CC23CF
:103A700031F120918000309181008091620086FFB9
:103A80000BC0A3E7B0E0F9018C2F8A0F94919D93AE
:103A900031968A13FBCF09C0D901E3E7F0E08C2F00
:103AA0008E0F9D9191938E13FCCF8FEF8C0F90E032
:103AB0000196820F931F90938100809380006C2F5A
:103AC00083E790E00E94951DCC5FCC3019F08FEF1A
:103AD00080936000C093610084E190B3987131F4E9
:103AE0008150D9F71092830010927D00DF91CF9121
:103AF000089585B78C6085BF8BB780688BBF0895AC
:103B0000A82FB92F80E090E041E050EA609530E0C6
:103B100009C02D9182279795879510F084279527C6
:103B2000305EC8F36F5FA8F30895EADF8D939D932D
:103B30000895CF93CFB7CF93DF93C395849BE9F7D5
:103B4000849B0BC0849B09C0849B07C0849B05C0D9
:103B5000849B03C0849B01C089C06F93C0917F0088
:103B6000DD27CA57DF4F2F9365E5849B03C02F9154
:103B70006F91E6CF0F931F934F9320E040E15F9347
:103B800000B3087104FB27F93F9350E03BE039C0D4
:103B9000187140642F77012F5F5F1EC0406810B31B
:103BA00018712F7752501FC0406400B32F770871EF
:103BB000D1F15F5F00C023C0406210B32F7718714E
:103BC00091F15F5F00C025C008711027515012F4B9
:103BD0005D5F0000115027952C3F10B3C8F6187197
:103BE0000127015027952C3FC8F64227499300B37F
:103BF000087110274F73115027952C3FA8F6469552
:103C0000469510B3187179F00127015027952C3F84
:103C100098F66B5A60F3315000B3B0F600C010E86C
:103C20001ABF002717C03B503195C31BD04010E886
:103C30001ABF0881033CF9F00B34E9F020917D00B4
:103C40001981110F1213EDCF093651F10D3211F018
:103C5000013E39F7009384003F915F914F911F918E
:103C60000F912F916F91CAB7C7FD67CFDF91CF91A9
:103C7000CFBFCF91189520918400222369F3109132
:103C80008200112339F534303AF1309382002093C9
:103C90007E0010917F003BE0311B30937F001CC001
:103CA000009182000130B4F40AE53091610034FDE6
:103CB00014C000936100C2E7D0E013C0052710E0F4
:103CC00000C0000002BB1AC0052710E0221F1DC063
:103CD00010E021C04AE502C032ED432FC4E1D0E03C
:103CE00032E011B31861949A02B311BB58E120E895
:103CF00065E320FF052702BB279517951C3FF0F6CB
:103D00006695B8F7B1F720FF052702BB27951795F1
:103D10001C3FD0F62795179517FF052700001C3F7D
:103D200002BBB0F629913A9519F7077E10918300EE
:103D3000110FC651D04002BB11F010937D0010E866
:103D40001ABF006111B3177E402F477E54E05A9589
:103D5000F1F702BB11BB42BB7FCFF89481E18093A6
:103D60005700E89581E08BBF1BBEE0916300F091A6
:103D700064000994FC018181813019F40E94AD1E18
:103D80002EC0823009F581E080936900238130E004
:103D9000322F22278281282B3093680020936700DE
:103DA0001092660010926500E199FECFF894E091C0
:103DB0006700F091680083E080935700E89578945D
:103DC00007B600FCFDCF09C0833049F410926A00A9
:103DD00080E880936B0082E003C08FEF01C080E039
:103DE0002AE630E0309381002093800008952091EE
:103DF0006900213009F043C040E051E0461708F067
:103E00003CC0F894E0916500F09166002091670055
:103E100030916800E20FF31FDC01A40FB11D119671
:103E20002C91119730E0322F22277C91272B09010A
:103E300050935700E89511247894209165003091B3
:103E400066002E5F3F4F3093660020936500203858
:103E5000310588F0F894E0916700F091680085E002
:103E600080935700E895789407B600FCFDCF109238
:103E7000690081E008954E5FC1CF80E008958FEF23
:103E800008951BBA80E88ABB8DE088BB8FE087BBB2
:103E900081E085BB14BA88E182BB88E981BB11BA95
:103EA00080E182BB989B03C0979A0E94AD1E81E07F
:103EB0008BBF82E08BBF0E94791D949878940E94FA
:083EC000761CFDCFF894FFCF42
:023EC800FF5A9F
:0400000300003800C1
:00000001FF
